:08000000803102288731F62F40
:100E700020009C17080028009517080028009C17E0
:100E800008008731A127803102286A3021009900AB
:100E9000980108008F302500930092019101FC30E9
:100EA0009E050800083023009F0090309D0004300C
:100EB0009E0040309B0003309C00080080302C00D6
:100EC00099007F309800C030970025001E08CF3968
:100ED00010389E00080080302C009C007F309B0062
:100EE000C0309A0025001E083F3980389E00080057
:100EF00020009C019E019D0103309F00FF309B005C
:100F00009A01901087313827080028009501970131
:100F100096010D309800FF3094009301200091104D
:100F200087313B27080028009C019E019D010E305F
:100F30009F00FF309B009A012000111187313E274E
:100F400008008731BC2787318731452787318731B2
:100F50004A27873187319327873187316B2787313C
:100F600087318527873187315E2787318731782719
:100F7000873187315227080022008C0107308E000C
:100F8000373021008C0020308E0023008E018C0130
:100F90003F3024008C003F308E0021009513250047
:100FA0008C018E0100308B1B0130F7008B13553004
:100FB0003C008F00AA308F000F100C303D00A000C5
:100FC00015303C00A4000E303D00A1000630A40006
:100FD0000F30A20055303C008F00AA308F000F1454
:100FE000771CF42F8B1708008B130800F001F10118
:100FF000F201F301F401F501F60120008731412FE0
:020000040001F9
:06000E00BC3FFF3F9F3FD5
:00000001FF
